:100000000C94E5020C9407030C9407030C9407036B
:100010000C9407030C9407030C9407030C94070338
:100020000C9407030C9407030C9407030C94070328
:100030000C9407030C9407030C9407030C94070318
:100040000C9407030C94ED280C9474290C9407036A
:100050000C9407030C9407030C9407030C940703F8
:100060000C9407030C941B260C9450260C94070345
:100070000C9407030C9413030C9407030C940703CC
:100080000C9407030C9407030C9407030C940703C8
:100090000C941E030C9407030C9407030C940703A1
:1000A0000C9407030C9407030C9407030C940703A8
:1000B0000C9407030C9407030C9407030C94070398
:1000C0000C9407030C9407030C9407030C94070388
:1000D0000C9407030C9407030C9407030C94070378
:1000E0000C940703480446044404440444044404B0
:1000F00048044604480446044604440444044404B2
:1001000048044604440444044404440448044604A3
:100110004804460444044404440444044404440499
:100120004804460448044604480446044804460477
:100130004804460448044604440444044404460471
:100140004404440448045404540454045804560415
:1001500058045604560454045404540458045604D1
:1001600054045404540454045604560456045604C7
:1001700054045404540454045404540458045604B9
:10018000580456045804560456045604560456049B
:100190005604560456045604540456045604540493
:1001A00058044473743A20256C712C256C712C25ED
:1001B0006C712C256C712C256C750A00506F733A8C
:1001C00020256C712C256C712C256C712C256C7183
:1001D0002C256C750A0000010000000100000704D6
:1001E00000000A0000006D2802006D28020046137E
:1001F000010015EB0A0053746172743A20582025EF
:100200006C7120205920256C7120205A20256C719A
:1002100020204620256C750A0000E8030000E80352
:100220000058BB0F0010270000F4010000F401008B
:1002300000D0070000F40100005D207D0A002C645E
:10024000733A256C7500205B74733A256C75005BFE
:10025000256C642C256C642C256C642C256C645DE9
:10026000000A4372656174653A205820256C71203C
:10027000205920256C7120205A20256C71202046A1
:1002800020256C750A004572726F723A206C6F6F90
:100290006B206168656164206E6F742066617374A1
:1002A00020656E6F7567680D0A00496E6974696133
:1002B0006C2063726F7373696E6720737065656419
:1002C0003A20256C750A0043726F73732073706552
:1002D000656420726564756374696F6E2066726F01
:1002E0006D20256C7520746F20256C750A00453AC9
:1002F00020647620256C75206F6620256C75202083
:1003000020666163746F7220256C75206F662025EE
:100310006C750A005A3A20647620256C75206F6649
:1003200020256C75202020666163746F7220256C17
:1003300075206F6620256C750A00593A2064762076
:10034000256C75206F6620256C7520202066616302
:10035000746F7220256C75206F6620256C750A00FD
:10036000583A20647620256C75206F6620256C75C0
:10037000202020666163746F7220256C75206F6683
:1003800020256C750A0070726576463A20256C64EB
:100390002020256C642020256C642020256C640AB4
:1003A00063757272463A20256C642020256C6420A7
:1003B00020256C642020256C640A004469737461F4
:1003C0006E63653A20256C752C207468656E202557
:1003D0006C750A000D0A006572726F723A20656DC5
:1003E000657267656E63792073746F703A00000000
:1003F000000000000000010000000000000000E814
:10040000030000E8030018790000102700005125C0
:10041000642F256425630057616974696E672066DF
:100420006F72207461726765742074656D700A0064
:1004300054656D702061636869657665640A007251
:100440007320007273204E256C64204578706563BC
:1004500074656420636865636B73756D2025640A39
:10046000006F6B2000453A20426164204D2D636F80
:100470006465202564004563686F206F6E004563E6
:10048000686F206F6666007A5F6D696E3A007472FD
:100490006967676572656420006F70656E2000464D
:1004A00049524D574152455F4E414D453A54656161
:1004B000637570204649524D574152455F55524C25
:1004C0003A687474703A2F2F6769746875622E6386
:1004D0006F6D2F747261756D666C75672F546561F1
:1004E0006375705F4669726D776172652F20505237
:1004F0004F544F434F4C5F56455253494F4E3A313C
:100500002E30204D414348494E455F545950453A9D
:100510004D656E64656C2045585452554445525F94
:10052000434F554E543A25642054454D505F534532
:100530004E534F525F434F554E543A256420484521
:10054000415445525F434F554E543A2564002C6345
:100550003A256C757D0A456E64706F696E743A2039
:10056000583A256C642C593A256C642C5A3A256CFF
:10057000642C453A256C642C463A256C752C633AFC
:10058000256C757D00583A256C712C593A256C7193
:100590002C5A3A256C712C453A256C712C463A251B
:1005A0006C75000A73746F700A00453A20426164EA
:1005B00020472D636F646520256400737461727435
:1005C0000A6F6B0A003078000A0011241FBECFEFBB
:1005D000D1E2DEBFCDBF00E00CBF12E0A0E0B2E090
:1005E000EEE8F7E500E00BBF02C007900D92A832DD
:1005F000B107D9F71BBE17E0A8E2B2E001C01D9217
:10060000A630B107E1F70E94E5250C94C52B0C94A8
:100610000000FB01DC0102C001900D9241505040EE
:10062000D8F70895089578941F920F920FB60F92FD
:1006300011240F900FBE0F901F9018951F920F92CC
:100640000FB60F920BB60F9211248F939F93EF93D7
:10065000FF93809140069091CE00E1E4F6E0E80F30
:10066000F11D90838F5F80934006FF91EF919F91E2
:100670008F910F900BBE0F900FBE0F901F9018958B
:100680009B01AC0183E0220F331F441F551F8A9545
:10069000D1F760E074E284EF90E00E946D2B21506E
:1006A0003040E8ECF0E08081826080833093CD00C0
:1006B0002093CC0010924006E9ECF0E080818F7727
:1006C000808380818F7E80838081877F8083EEE638
:1006D000F0E08081816080830895582F942F80916D
:1006E000C9008F778093C9008091C9008F7E809365
:1006F000C9008091C90088608093C9008091C800BA
:1007000085FFFCCF8FEF8093CE008091C80085FFDE
:10071000FCCF8FEF8093CE008091C80085FFFCCF87
:100720005093CE00462F4E5F8091C80085FFFCCFCE
:100730004093CE008091C80085FFFCCF9093CE00FF
:10074000490F450FF90190E00AC020818091C8004F
:1007500085FFFCCF2093CE00420F9F5F3196961706
:10076000A0F38091C80085FFFCCF40954093CE0058
:1007700080916E008E7F80936E008091C900877F8C
:100780008093C9008091C90080618093C9008091E5
:10079000C90080688093C9001092400608951F9395
:1007A00070E060E007C04F5F5F4F84E04E34580751
:1007B00019F418C040E050E0E72FF0E080914006C7
:1007C0009F01260F311D90E02817390761F34FC0B4
:1007D000EF5BF94F80818F3F11F07F5FEBCF6F5F51
:1007E0006D3040F38091C9008F778093C90080916C
:1007F000C9008F7E8093C9008091C900877F809354
:10080000C90080916E00816080936E0090E09F5FD0
:10081000192F170F262F291B412F50E0FA01EF5BEC
:10082000F94F80818F3F99F3923008F090E0DA0120
:100830001196FD01EF5BF94F70817E5F27139E5F7C
:100840009A0160E007C0F901EF5BF94F8081680F02
:100850002F5F3F4F822F841B8717A8F36F3F09F04C
:100860009C5FAF5BB94F9C93812F1F9108956623C6
:1008700009F0B5CFADCFE82FF0E0E133F10530F46A
:10088000EE58FF4F0C94BF2B81E0089580E008954F
:1008900082E0089590E0FC013397EE32F10530F4E8
:1008A000ED55FF4F0C94BF2B81E0089580E0089533
:1008B00082E00895CF93DF93EC018A81861750F18F
:1008C0000E94CF03482FE82FF0E0DF01AF5BB94F64
:1008D0009C91DF01AE5BB94F6C91ED5BF94FE0810C
:1008E0008881981719F420E030E002C020E034E05D
:1008F000A62FB0E0B695BA2FAA27B795A7958E2F49
:1009000090E0A82BB92BA22BB32BE42FF0E0EC5BEB
:10091000F94F18C08091C9008F778093C9008091EA
:10092000C9008F7E8093C9008091C900877F809322
:10093000C90080916E00816080936E00E0E0F0E07D
:10094000AFEFBFEFBD01CF01DF91CF910895DC0183
:10095000FA01643251F0653218F46E3169F505C060
:10096000663281F0683241F50DC011968C91882372
:1009700019F18FEF93E020813181821B930B9183DA
:10098000808308952081318190E044E02030340755
:100990000CF091E011968C919827990F9150892F26
:1009A00090E03370AC01429FC001439F900D529F75
:1009B000900D1124918380830895A0E0B0E0E3EED0
:1009C000F4E00C948F2B6C01962E142FADB6BEB6AE
:1009D000842F90E001964DB75EB7481B590B0FB6B8
:1009E000F8945EBF0FBE4DBFEDB6FEB60894E11C95
:1009F000F11CEDB7FEB76183A7014F5F5F4FCA01DE
:100A0000B901412F50E00E940903612F6F5F00235D
:100A100021F0F601808144E003C0F601808143E0CB
:100A200097010E946D03C60162E00E945A04072FDD
:100A3000162FF6E1F91530F065E070E080E090E007
:100A40000E94601B812F902F0FB6F894BEBE0FBE80
:100A5000ADBE2096EBE00C94AB2BA2E0B0E0E3E35C
:100A6000F5E00C94912B7C01062F5A834983B22E1A
:100A7000CDB6DEB6862F0E944A04182F882319F4BB
:100A80002EEF3FEF27C0C701602FAE014F5F5F4FD2
:100A90000E94A7048DB79EB7811B91090FB6F894E9
:100AA0009EBF0FBE8DBFEDB7FEB7319689819A818B
:100AB000ADB7BEB711968C93113021F0892F990FE5
:100AC000990B8183C701602F412F9F010B2D0E943D
:100AD000DD049C01C9010FB6F894DEBE0FBECDBE89
:100AE0002296E9E00C94AD2BCF93DF93D2C00E9405
:100AF0008D280E947A24C6C00E945F23882309F4AF
:100B0000BAC080913406893718F00E940026B3C01D
:100B10009FB7F894809134068F5F809334069FBF0F
:100B2000AAC08091610686FFA4C00E9472068DB79C
:100B30009EB746970FB6F8949EBF0FBE8DBFEDB718
:100B4000FEB731968CEB91E0ADB7BEB712969C9391
:100B50008E9311978091520290915302A09154026A
:100B6000B091550282839383A483B583809156020A
:100B700090915702A0915802B091590286839783B1
:100B8000A087B18780915A0290915B02A0915C028C
:100B9000B0915D0282879387A487B58780915E02BA
:100BA00090915F02A0916002B09161028687978761
:100BB000A08BB18B8091620290916302A09164023C
:100BC000B0916502828B938BA48BB58B0E94DD273D
:100BD0002091A90230E04DB75EB74F5F5F4F82EAC8
:100BE00091E0CDB7DEB79A8389838BE690E0289FAA
:100BF000F001299FF00D389FF00D1124E655FD4FAF
:100C000080819181A281B381EA018A839B83AC8335
:100C1000BD8384819581A681B7818E839F83A887B8
:100C2000B98780859185A285B3858A879B87AC87A4
:100C3000BD8784859585A685B7858E879F87A88B78
:100C4000B98B80899189A289B389FA01828B938BB0
:100C5000A48BB58B0E94DD278DB79EB746960FB645
:100C6000F8949EBF0FBE8DBF0E94001A8AE00E94BA
:100C7000A92610923F0680913F06882309F051CFA4
:100C800010923E0680913E06882309F035CF1092DF
:100C90003D0680913D06882309F029CFDF91CF9151
:100CA00008958091380290913902A0913A02B09152
:100CB0003B020097A105B105A1F48AE090E0A0E015
:100CC000B0E08093180690931906A0931A06B0938B
:100CD0001B068093380290933902A0933A02B09396
:100CE0003B0208952F923F925F926F927F928F9274
:100CF0009F92AF92BF92CF92DF920F93DF93CF93E9
:100D0000CDB7DEB728970FB6F894DEBF0FBECDBFC4
:100D10000091A9020E949919882309F441C0809189
:100D2000280290912902A0912A02B0912B0280936F
:100D3000520290935302A0935402B09355028091B3
:100D40002C0290912D02A0912E02B0912F0280933F
:100D5000560290935702A0935802B0935902809183
:100D6000300290913102A0913202B091330280930F
:100D70005A0290935B02A0935C02B0935D02809153
:100D8000340290913502A0913602B09137028093DF
:100D90005E0290935F02A0936002B0936102B3C0C1
:100DA0008BE6089F100111248AEA92E0280E391E72
:100DB000D10155968C9181FFA6C000E0662477246E
:100DC000C02EDD24F601EE0FFF1FEE0FFF1FE20D18
:100DD000F31D80809180A280B380002329F4F1016B
:100DE000858984FD17C019C0013031F4D1015596B1
:100DF0008C9185FD0FC011C0023029F4F101858965
:100E000086FD08C00AC0033041F4D10155968C918B
:100E100087FF03C05524539402C055245A94202FB1
:100E200030E0220F331F220F331F2A523E4FF901A9
:100E300085919591A591B4918D839E83AF83B88759
:100E4000CC0CDD1CCC0CDD1CF601E958FD4F60819B
:100E500071818281938128EE33E040E050E00E946E
:100E6000182B2D813E814F8158850E944B2BCA0142
:100E7000B901252D332727FD3095432F532F0E948D
:100E8000182B861A970AA80AB90A82E592E0C80EBA
:100E9000D91ED6018D929D92AD92BC9213970F5F91
:100EA0000894611C711CB4E06B16710409F088CFC2
:100EB000F101848980FF27C022EE31E0F90185919C
:100EC0009591A591B49189839A83AB83BC836091FA
:100ED000830270918402809185029091860228EEAF
:100EE00033E040E050E00E94182B29813A814B8189
:100EF0005C810E944B2B20935E0230935F024093F3
:100F000060025093610228960FB6F894DEBF0FBEC0
:100F1000CDBFCF91DF910F91DF90CF90BF90AF9079
:100F20009F908F907F906F905F903F902F9008954B
:100F3000EF92FF920F931F93CF93DF930E94B51907
:100F4000EC018091920290919302C817D90781F029
:100F5000109291021092900210928F0210928E02C3
:100F600010928D0210928C02D0939302C093920241
:100F7000209709F415C180919402882309F010C1CB
:100F800081E0809394027894C759DF4F9881C956C5
:100F9000D040992309F46BC080918B02882309F01B
:100FA00066C092FF64C08CB190E035E0969587955D
:100FB0003A95E1F78095909581709070C659DF4F12
:100FC0002881CA56D04030E08217930731F48091CF
:100FD0008E028F5F80938E0202C010928E028091EB
:100FE0008E02843028F480919102843008F43FC04E
:100FF0006FB7F89481E080938B02E0908702F090C5
:1010000088020091890210918A028BAD9CADADAD32
:10101000BEADE816F9060A071B0738F4D801C70168
:10102000880F991FAA1FBB1F12C08FA198A5A9A541
:10103000BAA58E0D9F1DA01FB11FEF962881398183
:101040004A815B81EF97821B930BA40BB50B8FA397
:1010500098A7A9A7BAA7EF96E882F9820A831B830B
:10106000EF976FBF1BAE1CAE1DAE1EAE75988FB74F
:10107000F894E0908702F090880200918902109124
:101080008A028FBF8BAD9CADADADBEADE816F90643
:101090000A071B0768F4C15BDF4F88819981AA8129
:1010A000BB81CF54D0408E0D9F1DA01FB11F20C00B
:1010B000EF9688819981AA81BB81EF97E816F9069E
:1010C0000A071B0708F469C0CD5ADF4F8881998150
:1010D000AA81BB81C355D0402FA138A549A55AA5E7
:1010E000820F931FA41FB51F8E199F09A00BB10B70
:1010F0008FAB98AFA9AFBAAF2FA938AD49AD5AADF4
:10110000FE01E859FF4F211531054105510571F4E4
:101110008081E82FF0E0EE0FFF1FEE0FFF1FEA5176
:10112000FE4F65917591859194911FC08081E82F44
:10113000F0E0EE0FFF1FEE0FFF1FEA51FE4FE590AC
:10114000F59005911491C9010E94F018A0E0B0E05B
:10115000BC01CD01A80197010E94182BEDE09695E6
:10116000879577956795EA95D1F7CD5BDF4FE88056
:10117000F9800A811B81C354D0409B01AC016E15DC
:101180007F058007910710F4A80197018FB7F894A5
:101190002BAB3CAB4DAB5EAB8FBFF894109294027F
:1011A000CDB7DEB7E6E00C94B02BEF92FF920F9331
:1011B0001F93FC01E0907702F09078020091790291
:1011C00010917A02E114F10401051105C1F1209199
:1011D0006702309168024091690250916A028789E2
:1011E000908DA18DB28D281B390B4A0B5B0B209380
:1011F0006702309368024093690250936A0257FF76
:101200001EC0889A0894E108F10801091109E092CA
:101210007702F09278020093790210937A0287A104
:1012200090A5A1A5B2A5280F391F4A1F5B1F2093C7
:101230006702309368024093690250936A02E0901B
:101240007B02F0907C0200917D0210917E02E114FD
:10125000F10401051105C1F120916B0230916C027E
:1012600040916D0250916E02838D948DA58DB68D47
:10127000281B390B4A0B5B0B20936B0230936C02DB
:1012800040936D0250936E0257FF1EC08E9A0894D1
:10129000E108F10801091109E0927B02F0927C0259
:1012A00000937D0210937E0287A190A5A1A5B2A50F
:1012B000280F391F4A1F5B1F20936B0230936C026B
:1012C00040936D0250936E02E0907F02F090800296
:1012D0000091810210918202E114F10401051105CF
:1012E000C1F120916F0230917002409171025091D2
:1012F0007202878D90A1A1A1B2A1281B390B4A0BC4
:101300005B0B20936F0230937002409371025093F5
:10131000720257FF1EC0419A0894E108F1080109C2
:101320001109E0927F02F0928002009381021093F3
:10133000820287A190A5A1A5B2A5280F391F4A1F37
:101340005B1F20936F0230937002409371025093A1
:101350007202E0908302F090840200918502109165
:101360008602E114F10401051105C1F12091730217
:1013700030917402409175025091760283A194A13C
:10138000A5A1B6A1281B390B4A0B5B0B2093730256
:1013900030937402409375025093760257FF1EC03B
:1013A000149A0894E108F10801091109E0928302F6
:1013B000F0928402009385021093860287A190A583
:1013C000A1A5B2A5280F391F4A1F5B1F20937302E6
:1013D0003093740240937502509376028091870295
:1013E00090918802A0918902B0918A020196A11D74
:1013F000B11D8093870290938802A0938902B093D5
:101400008A028091770290917802A0917902B0913E
:101410007A020097A105B10521F580917B02909198
:101420007C02A0917D02B0917E020097A105B105DA
:10143000C1F480917F0290918002A0918102B091CD
:1014400082020097A105B10561F480918302909119
:101450008402A0918502B09186020097A105B10592
:1014600069F080918B028823A1F087A990ADA1AD8E
:10147000B2AD181619061A061B065CF085898D7F19
:101480008460858BE959FF4F808181508083479A22
:1014900008C01092340663A974A985A996A90E9470
:1014A000AD2888988E98419814981F910F91FF90BD
:1014B000EF900895CF93DF93EC018091610685FF53
:1014C0003DC08DB79EB742970FB6F8949EBF0FBE32
:1014D0008DBFEDB7FEB7319686EF91E0ADB7BEB7E1
:1014E00012969C938E93119788819981AA81BB81D2
:1014F00082839383A483B5838C819D81AE81BF81D8
:1015000086839783A087B18788859985AA85BB85BF
:1015100082879387A487B58788899989AA89BB8997
:1015200086879787A08BB18B0E94DD278DB79EB7EA
:1015300042960FB6F8949EBF0FBE8DBF8D8980FD79
:1015400075C0109234068F8D98A1A9A1BAA10097F9
:10155000A105B10509F04798C759DF4F8881C956E1
:10156000D0408111759A8D8984FF02C0899A01C08B
:1015700089988D8985FD02C08F9A01C08F988D89C9
:1015800086FD02C0439A01C043988D8987FF02C03F
:10159000169A01C016988FA198A5A9A5BAA5B695C7
:1015A000A79597958795B095A095909581959F4F14
:1015B000AF4FBF4F8093730290937402A093750254
:1015C000B093760280936F0290937002A0937102A1
:1015D000B093720280936B0290936C02A0936D02A1
:1015E000B0936E028093670290936802A0936902A1
:1015F000B0936A02A7E7B2E0FE01779680E101901E
:101600000D928150E1F710928B0210928702109296
:1016100088021092890210928A028D8982608D8BD5
:101620006BA97CA98DA99EA90E94AD28888999895A
:10163000AA89BB898093620290936302A09364029B
:10164000B0936502DF91CF910895A0E0B0E0EBE2A6
:10165000FBE00C948D2B7724C0E0D0E0872C9924FC
:10166000880C991C880C991CF401E251FC4F2591BF
:10167000359145915491F401E250FC4FE590F5907D
:1016800005911491F401E85DFD4F608171818281C3
:101690009381E0E4AE2EE2E4BE2EEFE0CE2ED12C1C
:1016A0000E9439172DE332E0820E931EF40160830D
:1016B00071838283938373942196C430D10571F62C
:1016C000CDB7DEB7EDE00C94A92BACE1B0E0EBE6D2
:1016D000FBE00C94882B2C011B01E0919502F0910A
:1016E0009602309719F0858982FD05C0D201559682
:1016F0008C9183FF04C01092960210929502F20121
:10170000858983FD02C58091610685FF46C00DB7BE
:101710001EB7025110400FB6F8941EBF0FBE0DBF8A
:10172000EDB7FEB7319681E692E0ADB7BEB712963F
:101730009C938E931197D2012D913D914D915C9187
:101740001397228333834483558314962D913D91BF
:101750004D915C9117972683378340875187189660
:101760002D913D914D915C911B9722873387448742
:10177000558750962D913D914D915C9153972687B9
:101780003787408B518B0E94DD27EDB7FEB77296ED
:101790000FB6F894FEBF0FBEEDBFD201F10185E197
:1017A00001900D928150E1F7BBE4EB2EF12C4E0C31
:1017B0005F1CD2011D921D921D921D92FD0111927E
:1017C0001192119211922F011082118212821382B2
:1017D00080919702E4E1F0E04E0E5F1ED2018C93FF
:1017E000E9E9FFEF4E0E5F1E8F5F8093970266243C
:1017F000F1C0F401EE0FFF1FEE0FFF1FD101AE0F7E
:10180000BF1FAD90BD90CD90DC908E010F5F1F4F3C
:101810000E0F1F1FE85DFD4F80819181A281B38172
:10182000A6019501281B390B4A0B5B0BD8012D93A0
:101830003D934D935C93139757FF0CC088279927CE
:10184000DC01821B930BA40BB50BF8018083918301
:10185000A283B383862D90E0880F991F880F991F6C
:10186000FC01E251FC4F2591359145915491FC01C9
:10187000E250FC4FE590F59005911491C601B50139
:10188000E0E4AE2EE2E4BE2EEFE0CE2ED12C0E949C
:1018900039179B01AC01F401EE0FFF1FEE0FFF1F84
:1018A000B2016E0F7F1FE35CFD4F80819181A281A9
:1018B000B38179018A01E81AF90A0A0B1B0BD801D6
:1018C000C70117FF07C0B095A095909581959F4FD0
:1018D000AF4FBF4FFB01878B908FA18FB28FD40189
:1018E000AA0FBB1FAA0FBB1FFD01E35CFD4F2083A6
:1018F00031834283538360E070E0F101EA0FFB1F04
:10190000A85DBD4F20813181428153818D919D9190
:101910000D90BC91A02D281739074A075B0714F0DA
:1019200061E070E0662051F4962F91709295907F5F
:10193000D20155968C9155978F7E1AC0B1E06B16E7
:1019400049F4962F91709295990F907EF2018589B6
:101950008F7D1CC0F2E06F1679F4962F91709295EE
:10196000990F990F907CD20155968C9155978F7B4A
:10197000892B55968C930CC0B3E06B1649F4962FC7
:10198000979599279795F20185898F77892B858B74
:10199000F401EE0FFF1FEE0FFF1FB2016E0F7F1F4E
:1019A000695A7F4FD101AE0FBF1FE85DFD4F8D918A
:1019B0009D910D90BC91A02D208131814281538158
:1019C000821B930BA40BB50BFB0180839183A28335
:1019D000B3836394862C9924D10154968C91282F3B
:1019E000217080FD03C084E090E002C083E090E0BD
:1019F000881699060CF4FDCE222309F46CC0F1017F
:101A0000A484B584C684D784AD86BE86CF86D88AA2
:101A1000D7FE0BC088279927DC018A199B09AC09DE
:101A2000BD098D879E87AF87B88BEAEFF3E02591DC
:101A3000359145915491EAE0F4E0E590F5900591F7
:101A40001491C601B501E0E4AE2EE2E4BE2EEFE053
:101A5000CE2ED12C0E9439179B01AC01D201939656
:101A60006D937D938D939C93969797FF0CC08827D9
:101A70009927DC01821B930BA40BB50BF20183A306
:101A800094A3A5A3B6A323E6E22EF12C4E0C5F1C73
:101A9000F10184859585A685B785F20180839183C0
:101AA000A283B3839DE9E92E9FEFF92E4E0C5F1CB4
:101AB00020E0F10184859585A685B785B7FF21E0F3
:101AC000279522272795D20155968C9155978F7788
:101AD000822B55968C938091610685FF73C0EDB77C
:101AE000FEB772970FB6F894FEBF0FBEEDBF3196EA
:101AF0008FE492E0ADB7BEB712969C938E93119788
:101B0000D101ED90FD900D911C9113972091280229
:101B10003091290240912A0250912B02E21AF30AD5
:101B2000040B150BE282F382048315831496ED9067
:101B3000FD900D911C91179720912C0230912D0250
:101B400040912E0250912F02E21AF30A040B150B5A
:101B5000E682F782008711871896ED90FD900D912F
:101B60001C911B972091300230913102409132023A
:101B700050913302E21AF30A040B150BE286F38646
:101B8000048715871C96ED90FD900D911C911F9771
:101B90002091340230913502409136025091370243
:101BA000E21AF30A040B150BE686F786008B118BFD
:101BB0000E94DD27EDB7FEB772960FB6F894FEBF10
:101BC0000FBEEDBF10E060E070E01123B1F0E12F37
:101BD000F0E0EE0FFF1FEE0FFF1FE40DF51D27894C
:101BE000308D418D528DF20187A190A5A1A5B2A59E
:101BF00082179307A407B507A8F5B8E6EB2EF12CDA
:101C00004E0C5F1CD2011C93E8E9FFEF4E0E5F1EE5
:101C1000212F30E0220F331F220F331FF201E20F7A
:101C2000F31F8789908DA18DB28DF20187A390A7B4
:101C3000A1A7B2A7FE01E20FF31F81819281A381C8
:101C4000B481F20183A794A7A5A7B6A7F901E75E1F
:101C5000FD4F85919591A591B491F20187A790AB25
:101C6000A1ABB2AB1F5F6F5F7F4F6430710509F0AE
:101C7000ACCF8091610685FF20C000D000D086E403
:101C800092E0ADB7BEB712969C938E931197F20176
:101C900087A190A5A1A5B2A5EDB7FEB783839483D4
:101CA000A583B6830E94DD270DB71EB70A5F1F4FBD
:101CB0000FB6F8941EBF0FBE0DBFF20187A190A50D
:101CC000A1A5B2A50097A105B10521F48589816080
:101CD000858B07C20E94F6255F988A981298E9843E
:101CE000FA840B851C85E98EFA8E0B8F1C8FE98098
:101CF000FA800B811C81898D9A8DAB8DBC8D0097EC
:101D0000A105B10549F42D813E814F815885C80157
:101D1000B7010E94C51719C0E114F10401051105AE
:101D200041F48D819E81AF81B8850097A105B105F1
:101D300081F02D813E814F815885C801B701E98C22
:101D4000FA8C0B8D1C8D0E943818698F7A8F8B8FBF
:101D50009C8F098D1A8D2B8D3C8D0230110521052C
:101D6000310540F48D859E85AF85B889898F9A8F1E
:101D7000AB8FBC8F8091610685FF1EC000D000D064
:101D80008EE392E0ADB7BEB712969C938E931197F7
:101D9000E98CFA8C0B8D1C8D1396ED92FD920D93B0
:101DA0001C9316970E94DD27EDB7FEB736960FB647
:101DB000F894FEBF0FBEEDBFD2019796ED90FD9057
:101DC0000D911C919A97E98AFA8A0B8B1C8B698D6D
:101DD0007A8D8B8D9C8D20E639E040E050E00E94AA
:101DE000182BA80197010E944B2BCA01B90120E9C9
:101DF00031E040E050E00E94182B6D8B7E8B8F8B82
:101E0000988FAA24BB246501662488249924A62DD2
:101E1000B0E0AA0FBB1FAA0FBB1FCD01875D9D4F6E
:101E2000FC01E590F59005911491AC0FBD1F119642
:101E30006D917D918D919C91149720E639E040E061
:101E400050E00E94182B29893A894B895C890E94AD
:101E50004B2BCA01B90120E931E040E050E00E947B
:101E6000182BA80197010E944B2BA216B306C4069B
:101E7000D50610F459016A0163940894811C911CE1
:101E8000F4E08F16910409F0C2CFD10150962D9144
:101E90003D914D915C9153976D897E898F89988D85
:101EA0000E944B2BC901DA01F201ED5BFF4F8083E9
:101EB0009183A283B3838A159B05AC05BD0588F485
:101EC000A082B182C282D3826D897E898F89988DEA
:101ED000A60195010E944B2BF201208B318B428B86
:101EE000538BF20180899189A289B38980509040F7
:101EF000A140B04048F08FEF9FEFA0E0B0E0F201CA
:101F0000808B918BA28BB38BD2015096ED90FD907C
:101F10000D911C9153979B966D907D908D909C9008
:101F20009E97C801B701298D3A8D4B8D5C8D0E941B
:101F30004B2B7B018C01C401B301A98CBA8CCB8CD7
:101F4000DC8C0E943917F20127A530A941A952A9BA
:101F50000E944C19D201DB966D937D938D939C93D7
:101F6000DE9797962D913D914D915C919A9756955C
:101F7000479537952795261737074807590728F4B7
:101F8000F20123AF34AF45AF56AFF20187A190A560
:101F9000A1A5B2A523AD34AD45AD56AD821B930BC3
:101FA000A40BB50B3FE3E32EF12C4E0C5F1CF201AA
:101FB00080839183A283B38328E0E22EF12C4E0C20
:101FC0005F1C098D1A8D2B8D3C8DD2010D931D93B5
:101FD0002D933C931397E9EBFFEF4E0E5F1E80911C
:101FE000950290919602B2010E943513809195025C
:101FF00090919602B2010E9489109FE4E92EF12C83
:102000004E0C5F1CD2012D913D914D915C91E1EB05
:10201000FFEF4E0E5F1ED201D7962D933D934D9349
:102020005C93DA97F201E859FF4F2115310541051C
:10203000510599F48081E82FF0E0EE0FFF1FEE0FBD
:10204000FF1FEA51FE4F85919591A591B491F20140
:1020500083AB94ABA5ABB6AB26C08081E82FF0E094
:10206000EE0FFF1FEE0FFF1FEA51FE4FE590F590B8
:1020700005911491C9010E94F018A0E0B0E0BC01E4
:10208000CD01A80197010E94182BADE09695879588
:1020900077956795AA95D1F7D201D3966D937D93E5
:1020A0008D939C93D697E3E4F0E04E0E5F1ED20131
:1020B0002D913D914D915C91EDEBFFEF4E0E5F1E2A
:1020C000F20183A994A9A5A9B6A982179307A40729
:1020D000B50738F4D201D3962D933D934D935C937D
:1020E000D6978091610685FF04C089E392E00E9443
:1020F000D826A8E2B2E0F10185E101900D9281506D
:10210000E1F750929602409295026C96E2E10C94AF
:10211000A42BA4E2B0E0EFE8F0E10C94882B9CA3A0
:102120008BA3788F6F8B009709F49BC2DC015596C7
:102130008C9180FD96C2FB01E55BFF4F20813181D0
:1021400042815381EB54F040F88FEF8B211531051C
:102150004105510509F485C28091610685FF1BC0C8
:1021600000D000D08AEA92E0ADB7BEB712969C9339
:102170008E931197EDB7FEB723833483458356833F
:102180000E94DD270DB71EB70A5F1F4F0FB6F894E8
:102190001EBF0FBE0DBFABA1BCA155968C9155972C
:1021A00081FD5FC28FB7F894A959BF4FBCA3ABA301
:1021B000BC91BA87EBA1FCA1E756F040E088F1881A
:1021C00002891389E15BFF4FDF012080318042806B
:1021D00053802B8A3C8A4D8A5E8AAF54B040BCA3A0
:1021E000ABA397962D903D904D905C909A972F863B
:1021F000388A498A5A8AEF89F88DE55BFF4FDF01FB
:1022000020803180428053802B863C864D865E86BE
:102210005C96B88FAF8BBC91B983EF89F88DE75688
:10222000F040F88FEF8B27A030A441A452A42A825B
:102230003B824C825D828FBFEBA1FCA1E95BFF4F2B
:10224000A080B180C280D380E754F040FCA3EBA310
:1022500023A434A445A456A4C801B701A60195013E
:102260000E944B2B7B018C01C201B1010E943917E6
:102270006F8F78A389A39AA3AF89B88D5096ED90FC
:10228000FD900D911C915397A95BBF4FBA8FA98FF9
:10229000AD90BD90CD90DC90EF89F88D23A434A44F
:1022A00045A456A4C801B701A60195010E944B2B75
:1022B0007B018C01C201B1010E9439176B8F7C8FA9
:1022C0008D8F9E8FA98DBA8DAD90BD90CD90DC90F5
:1022D000EF89F88D23A434A445A456A46B857C858E
:1022E0008D859E85A60195010E944B2B39014A01DF
:1022F0006B857C858D859E85A60195010E944B2B63
:102300007B018C01C201B1010E9439179B01AC0114
:102310000E94182B2CEF3AE040E050E00E944B2B3B
:10232000C901DA012F85388949895A892B883C8867
:102330004D885E88220D331D441D551DEA80FB80AB
:102340000C811D81E216F3060407150710F4A8019D
:10235000970159016A0182179307A407B50710F482
:102360005C016D01A114B104C104D10409F479C167
:102370006F8D78A189A19AA19B01AC010E94182BB5
:102380002CEF3AE040E050E00E944B2BC901DA010B
:10239000A816B906CA06DB0671F4350146010B8999
:1023A0001C892D893E89601A710A820A930A2224A7
:1023B000332421015EC02B893C894D895E89A21698
:1023C000B306C406D50660F539014A016A187B08D0
:1023D0008C089D08EF84F88809891A89E618F7089F
:1023E000080919099C01AD012B883C884D885E883D
:1023F000221933094409550916950795F794E7946E
:102400002E153F054007510710F479018A01170185
:102410002801260C371C481C591C3701480129C0CB
:1024200035014601EB88FC880D891E896E187F08EE
:10243000800A910AEF84F88809891A89E618F70852
:10244000080919099C01AD012A193B094C095D09CC
:1024500016950795F794E7942E153F054007510709
:1024600010F479018A016E0C7F1C801E911E1701E9
:1024700028016B8D7C8D8D8D9E8D9B01AC010E9402
:10248000182B2CEF3AE040E050E00E944B2BC901A2
:10249000DA01A816B906CA06DB0649F4AE82BF8285
:1024A000C886D98620E030E040E050E025C0EA80D0
:1024B000FB800C811D81EA18FB080C091D099C0199
:1024C000AD012A193B094C095D0916950795F7944A
:1024D000E7942E153F054007510710F479018A0152
:1024E000A80197012A0D3B1D4C1D5D1D2E833F83C6
:1024F00048875987A80197016FB7F894809198028F
:1025000090919902A0919A02B0919B020196A11D0F
:10251000B11D8093980290939902A0939A02B09370
:102520009B02ABA1BCA155968C91559781FD74C0BF
:10253000A959BF4F8C91A756B040BCA3ABA3BA8595
:102540008B1709F069C0EF89F88D858981FD64C01A
:10255000E959FF4F8081E756F040F88FEF8BF98102
:102560008F1709F059C00BA11CA10D5A1F4FD8019C
:10257000AD92BD92CD92DC921397A355B040FD0170
:1025800063AE74AE85AE96AEFF96FCA3EBA3EF846C
:10259000F88809891A89E218F30804091509E08204
:1025A000F18202831383EF89F88D23AF34AF45AFF7
:1025B00056AFFF962A803B804C805D80EE80FF8086
:1025C000088519852E183F08400A510ADF0120822C
:1025D0003182428253825496B88FAF8BFD011082B4
:1025E000118212821382D292C292B292A2928091EE
:1025F000A0029091A102A091A202B091A302019623
:10260000A11DB11D8093A0029093A102A093A202EC
:10261000B093A30280E001C081E06FBF882309F17D
:102620000F920F9286E892E0ADB7BEB712969C93D8
:102630008E9311970E94DD2780919C0290919D02BC
:10264000A0919E02B0919F020196A11DB11D8093A1
:102650009C0290939D02A0939E02B0939F020F90C4
:102660000F90A496E2E10C94A42BA6E2B0E0EBE379
:10267000F3E10C94882B9EA38DA37AA369A3009702
:1026800009F4F3C3DC0155968C91559780FDEDC399
:1026900050968D919D910D90BC91A02DFB012089AC
:1026A00031894289538929833A834B835C8382171A
:1026B0009307A407B50720F489839A83AB83BC836F
:1026C0008091610685FF42C02DB73EB72A50304049
:1026D0000FB6F8943EBF0FBE2DBFEDB7FEB73196D3
:1026E0008BEB93E0ADB7BEB712969C938E93119788
:1026F0002DA13EA1295B3F4FD9012D913D914D91D7
:102700005C911397A754B040BEA3ADA3228333833B
:102710004483558329A13AA1295B3F4FD9012D91CB
:102720003D914D915C911397A754B040BAA3A9A3D2
:1027300026833783408751870E94DD27EDB7FEB798
:102740003A960FB6F894FEBF0FBEEDBF2DA13EA185
:10275000295B3F4F3CA32BA3D901AD90BD90CD90F9
:10276000DC90EDA1FEA1E95AFF4F219031904190FC
:102770005190FEA3EDA369817A818B819C81A60192
:1027800095010E944B2B7B018C01C201B1010E947B
:1027900039176D8F7E8F8F8F98A3ABA1BCA1AD90A1
:1027A000BD90CD90DC90EDA1FEA1219031904190A3
:1027B0005190FEA3EDA369817A818B819C81A60152
:1027C00095010E944B2B7B018C01C201B1010E943B
:1027D0003917698F7A8F8B8F9C8FABA1BCA1AD907D
:1027E000BD90CD90DC90EDA1FEA121903190419063
:1027F0005190FEA3EDA369817A818B819C81A60112
:1028000095010E944B2B7B018C01C201B1010E94FA
:1028100039176D8B7E8B8F8B988FABA1BCA1AD9040
:10282000BD90CD90DC90EDA1FEA120803180428052
:10283000538069817A818B819C81A60195010E94D8
:102840004B2B7B018C01C201B1010E943917698BAE
:102850007A8B8B8B9C8BE9A1FAA1E95BFF4FFEA3DE
:10286000EDA3A080B180C280D38029A13AA1295ACA
:102870003F4FD9012D903D904D905D90BAA3A9A3F3
:1028800069817A818B819C81A60195010E944B2BE5
:102890007B018C01C201B1010E9439176D877E87CF
:1028A0008F87988BEDA1FEA1A080B180C280D380DC
:1028B000A9A1BAA12D903D904D905D90BAA3A9A376
:1028C00069817A818B819C81A60195010E944B2BA5
:1028D0007B018C01C201B1010E94391769877A8797
:1028E0008B879C87EDA1FEA1A080B180C280D380A0
:1028F000A9A1BAA12D903D904D905D90BAA3A9A336
:1029000069817A818B819C81A60195010E944B2B64
:102910007B018C01C201B1010E9439176D837E8356
:102920008F839887EDA1FEA1A080B180C280D38063
:10293000A9A1BAA12D903D904D905C901397A356FC
:10294000B040BAA3A9A369817A818B819C81A60139
:1029500095010E944B2B7B018C01C201B1010E94A9
:1029600039171B012C018091610685FF58C0EDB716
:10297000FEB7B2970FB6F894FEBF0FBEEDBF31960B
:1029800086E893E0ADB7BEB712969C938E931197ED
:102990002D8D3E8D4F8D58A12283338344835583E3
:1029A000898D9A8DAB8DBC8D86839783A087B187E7
:1029B0002D893E894F89588D2287338744875587D3
:1029C00089899A89AB89BC8986879787A08BB18BC7
:1029D0002D853E854F855889228B338B448B558BB3
:1029E00089859A85AB85BC85868B978BA08FB18FA7
:1029F0002D813E814F815885228F338F448F558F93
:102A0000268E378E40A251A20E94DD274DB75EB7B9
:102A10004E5D5F4F0FB6F8945EBF0FBE4DBF8D8504
:102A20009E85AF85B8892D8D3E8D4F8D58A1281775
:102A300039074A075B073CF45C016D01A21AB30A2F
:102A4000C40AD50A0CC0AD8CBE8CCF8CD8A08D85A5
:102A50009E85AF85B889A81AB90ACA0ADB0AA114EB
:102A6000B104C104D10431F4612CA2E07A2E812C8E
:102A7000912C52C060E07AE080E090E0A6019501E0
:102A80000E944B2B79018A0190E0E91692E0F90649
:102A900090E0090790E0190718F43701480105C0D4
:102AA000612CF2E07F2E812C912C8091610685FFB4
:102AB00033C0ADB7BEB752970FB6F894BEBF0FBEC6
:102AC000ADBFEDB7FEB7319680E693E012969C93CA
:102AD0008E931197A282B382C482D5828AE090E05D
:102AE000A0E0B0E086839783A087B187E286F38673
:102AF0000487158780E091E0A0E0B0E086879787A3
:102B0000A08BB18B0E94DD27EDB7FEB772960FB692
:102B1000F894FEBF0FBEEDBF29853A854B855C85D5
:102B2000898D9A8DAB8DBC8D82179307A407B5074D
:102B30003CF459016A01A81AB90ACA0ADB0A0CC096
:102B4000A98CBA8CCB8CDC8C29853A854B855C852D
:102B5000A21AB30AC40AD50AA114B104C104D1044B
:102B600009F44BC060E07AE080E090E0A6019501B6
:102B70000E944B2B79018A01E614F7040805190518
:102B800010F4370148018091610685FF36C04DB7CA
:102B90005EB7425150400FB6F8945EBF0FBE4DBFB6
:102BA000EDB7FEB731968AE393E0ADB7BEB71296A4
:102BB0009C938E931197A282B382C482D5828AE0BD
:102BC00090E0A0E0B0E086839783A087B187E2869B
:102BD000F3860487158780E091E0A0E0B0E0868767
:102BE0009787A08BB18B0E94DD27EDB7FEB7729659
:102BF0000FB6F894FEBF0FBEEDBF2D813E814F8111
:102C000058858D899E89AF89B88D82179307A4074F
:102C1000B5073CF459016A01A81AB90ACA0ADB0AC5
:102C20000CC0AD88BE88CF88D88C2D813E814F8165
:102C30005885A21AB30AC40AD50AA114B104C10462
:102C4000D10409F44BC060E07AE080E090E0A60196
:102C500095010E944B2B79018A01E614F7040805BF
:102C6000190510F4370148018091610685FF36C0CF
:102C70004DB75EB7425150400FB6F8945EBF0FBEDD
:102C80004DBFEDB7FEB7319684E193E0ADB7BEB767
:102C900012969C938E931197A282B382C482D5829E
:102CA0008AE090E0A0E0B0E086839783A087B187B8
:102CB000E286F3860487158780E091E0A0E0B0E02B
:102CC00086879787A08BB18B0E94DD27EDB7FEB773
:102CD00072960FB6F894FEBF0FBEEDBF29893A89F0
:102CE0004B895C8922153305440555053CF4620186
:102CF0005101A21AB30AC40AD50A08C0A988BA8821
:102D0000CB88DC88A218B308C408D508A114B10484
:102D1000C104D10409F44BC060E07AE080E090E0A7
:102D2000A60195010E944B2B79018A01E614F70454
:102D30000805190510F4370148018091610685FFE7
:102D400036C04DB75EB7425150400FB6F8945EBFE3
:102D50000FBE4DBFEDB7FEB731968EEE92E0ADB728
:102D6000BEB712969C938E931197A282B382C482AF
:102D7000D5828AE090E0A0E0B0E086839783A087C8
:102D8000B187E286F3860487158780E091E0A0E0B2
:102D9000B0E086879787A08BB18B0E94DD27EDB7C7
:102DA000FEB772960FB6F894FEBF0FBEEDBF09A135
:102DB0001AA1055B1F4FFFEF6F1671048104910488
:102DC00061F058F029813A814B815C81D8012D93C3
:102DD0003D934D935C93139711C0C401B3012981B6
:102DE0003A814B815C810E94182B672F782F892FA5
:102DF0009927F801608371838283938380916106B0
:102E000085FF33C02DB73EB72A5030400FB6F89437
:102E10003EBF0FBE2DBFEDB7FEB7319687EC92E0F7
:102E2000ADB7BEB712969C938E93119729813A81C4
:102E30004B815C81228333834483558349A15AA10A
:102E4000455B5F4FDA012D903D904D905C9026825E
:102E50003782408651860E94DD27EDB7FEB73A964D
:102E60000FB6F894FEBF0FBEEDBFA696E2E10C943C
:102E7000A42BA4E0B0E0EFE3F7E10C94882B3B0136
:102E80004C0129833A834B835C831701280197FD0A
:102E900002C060E009C09094809470946094611CBA
:102EA000711C811C911C61E0EE24FF24870120E04D
:102EB00030E040E050E043C0C30181709070892B46
:102EC000D1F089819A81AB81BC81E80EF91E0A1F7D
:102ED0001B1F220D331D441D551D2A153B054C0596
:102EE0005D0548F00894E11CF11C011D111D2A1913
:102EF0003B094C095D0989819A81AB81BC81880FAE
:102F0000991FAA1FBB1F89839A83AB83BC83220CA2
:102F1000331C441C551C2A143B044C045D0458F01B
:102F20000196A11DB11D89839A83AB83BC832A18A6
:102F30003B084C085D0895948794779467946114D6
:102F400071048104910409F0B7CFD694C794B79463
:102F5000A794A216B306C406D50628F40894E11C6B
:102F6000F11C011D111D662341F022273327A90101
:102F70002E193F09400B510B02C0A8019701B9015E
:102F8000CA012496E2E10C94A42B6F927F928F9257
:102F90009F92AF92BF92CF92DF92EF92FF920F93E8
:102FA0001F93611571058105910529F021153105E2
:102FB0004105510529F4260F371F481F591F49C0E5
:102FC000621773078407950728F059016A013B01CE
:102FD0004C0104C05B016C0139014A01C601B50115
:102FE00029EB31E040E050E00E94182B7B018C017E
:102FF000C401B3012FEE33E040E050E00E94182BF3
:10300000E60EF71E081F191FA4E0AA0CBB1CCC1C5F
:10301000DD1CAA95D1F76A147B048C049D0460F42E
:10302000C401B30128E230E040E050E00E94182BD8
:10303000E61AF70A080B190BA801970120503E4F1A
:103040004F4F5F4FFAE05695479537952795FA957C
:10305000D1F7B901CA011F910F91FF90EF90DF9056
:10306000CF90BF90AF909F908F907F906F9008957A
:103070002F923F924F925F926F927F928F929F9288
:10308000AF92BF92CF92DF92EF92FF920F931F9376
:10309000621773078407950728F01B012C0139017B
:1030A0004A0104C019012A013B014C01E214F30456
:1030B0000405150538F4640153014201310117017B
:1030C00028010CC0E614F7040805190518F057018B
:1030D000680104C06401530137014801C401B30110
:1030E00023E533E040E050E00E94182B7B018C0187
:1030F000C601B5012CE533E040E050E00E94182BFA
:10310000E60EF71E081F191FC201B10128E032E0C8
:1031100040E050E00E94182BE60EF71E081F191F12
:10312000D401C301880F991FAA1FBB1FA816B90697
:10313000CA06DB0660F4C601B50126E231E040E0D4
:1031400050E00E94182BE61AF70A080B190B82E0D0
:10315000220C331C441C551C8A95D1F7A214B304CD
:10316000C404D50460F4C601B50121E730E040E0B5
:1031700050E00E94182BE61AF70A080B190B62148C
:1031800073048404950460F4C401B30128E230E0C0
:1031900040E050E00E94182BE61AF70A080B190BC2
:1031A000A801970120503E4F4F4F5F4FBAE0569510
:1031B000479537952795BA95D1F7B901CA011F915F
:1031C0000F91FF90EF90DF90CF90BF90AF909F90C6
:1031D0008F907F906F905F904F903F902F900895C9
:1031E000A0E0B0E0E6EFF8E10C94902BBC018FEF8B
:1031F0009FEF0E94372B80E090E0AA24B62EC72EC6
:10320000D82E11270D2DFC2CEB2C20E030E860E0AF
:1032100070E0232B822F90E0AC01449FC001459FBA
:10322000900D549F900D1124A0E0B0E0E816F9062F
:103230000A071B0708F4232736956F5F7F4F683016
:10324000710539F7C22FD0E094E0CC0FDD1F9A95BD
:10325000E1F708E010E0EE24FF24C02BD12B9E0103
:1032600040E050E0CA01B9010E94182BA616B7062B
:10327000C806D90610F4C027D127169507950894DB
:10328000E11CF11C54E0E516F10439F7CE01CDB78D
:10329000DEB7EAE00C94AC2BAF92BF92CF92DF92F4
:1032A000EF92FF920F931F937B018C0159016A01EA
:1032B000A80197010E94182B0E94622A7B018C01B1
:1032C000C601B5010E94622A9B01AC0160E579EA62
:1032D0008BE29EE40E94CE299B01AC01C801B7019C
:1032E0000E94CE290E94362A9B01AC01CA011F917F
:1032F0000F91FF90EF90DF90CF90BF90AF90089527
:103300009091A9028091A802292F30E0482F50E027
:10331000891730F4241B350B2130310531F407C0F7
:10332000295F3F4F2417350711F080E008958FEF94
:1033300008954FB7F8942091A9028091A802281708
:1033400089F430E08BE690E0289FF001299FF00D92
:10335000389FF00D1124E154FD4F808181FD02C0A2
:103360008FEF01C080E04FBF08952FB7F894909180
:10337000A9028BE6989FF0011124E655FD4F85893F
:1033800081FF04C083FD02C080FF02C0E0E0F0E0E6
:103390002FBFCF0108958091A8028093A90290E0E9
:1033A0002BE630E0829FF001839FF00D929FF00D9D
:1033B0001124E154FD4F80818D7F8083089502C0E8
:1033C0000E9474054FB7F8942091A9028091A80239
:1033D000281789F430E08BE690E0289FF001299FC0
:1033E000F00D389FF00D1124E154FD4F808181FDD7
:1033F00002C08FEF01C080E04FBF882309F308951A
:103400006091A9027091A8029091A9028091A802EE
:10341000292F30E0482F50E0891730F4241B350B5A
:103420002130310531F428C0295F3F4F241735077B
:1034300019F14FB7F8942091A9028091A80228179A
:1034400089F430E08BE690E0289FF001299FF00D91
:10345000389FF00D1124E154FD4F808181FD02C0A1
:103460008FEF01C080E04FBF882319F420E230E0E5
:1034700005C025E430E002C026E430E08DB79EB7F9
:1034800008970FB6F8949EBF0FBE8DBFEDB7FEB77D
:1034900031968EE094E0ADB7BEB712969C938E93B2
:1034A00011976283138274831582378326830E9467
:1034B000DD278DB79EB708960FB6F8949EBF0FBE56
:1034C0008DBF0895CF93DF931FC0842F8F5F8770C8
:1034D0009BE6899FE0011124C655DD4F8093A90228
:1034E0008D8983FF0EC087E194E00E94D8268D89E4
:1034F00082608D8B60E074E284EF90E00E94AD28E2
:1035000003C0CE010E945A0A4FB7F8942091A90235
:103510008091A802281789F430E08BE690E0289F7C
:10352000F001299FF00D389FF00D1124E154FD4F5B
:10353000808181FD02C08FEF01C080E04FBF8823F2
:1035400091F44091A902242F30E08BE690E0289F6F
:10355000F001299FF00D389FF00D1124E154FD4F2B
:10356000808181FFB2CFDF91CF910895FF920F93B9
:103570001F93CF93DF93EC01062FF42E8091A902C5
:103580009091A802282F30E0492F50E0981730F48E
:10359000241B350B2130310539F445C0295F3F4FDD
:1035A0002417350709F43FC0192F1F5F17708BE6EA
:1035B000189FD0011124A655BD4F56961C921E92FD
:1035C0005597209749F0FD01E759FF4F0083FD0112
:1035D000E659FF4FF08207C055968C915597886049
:1035E00055968C935597CD01BE010E94650B1093A3
:1035F000A8024FB7F8948091A90290E02BE630E042
:10360000829FF001839FF00D929FF00D1124E154F1
:10361000FD4F8081869581704FBF882349F40E94B9
:10362000621A789405C084E690E00E94491BA6CFF8
:10363000CDB7DEB7E5E00C94B12BCF93DF9390913B
:10364000A9028BE6989FE0011124C655DD4F8D89B4
:1036500081FF17C083FF12C060E074E284EF90E046
:103660000E94AD280E948928882359F08D89897F7E
:103670008D8B80E394E00E94D82603C0CE010E9487
:10368000D5088D8981FD02C00E94621ADF91CF9119
:10369000089506C0EEEFFFEF3197F1F780509044A8
:1036A00020E481309207B0F7A0E0B0E022E0880F7C
:1036B000991FAA1FBB1F2A95D1F70197F1F708950B
:1036C0009B01AC01223431054105510598F08EEF84
:1036D0009FEFFC013197F1F7FC013197F1F701976A
:1036E000F1F78CE997EF0197F1F721543040404012
:1036F0005040E8CFCA01B90128EE33E040E050E085
:103700000E94182B06C08EEF9FEF0197F1F76050D3
:10371000704480E461307807B0F7CB01A0E0B0E0FE
:1037200032E0880F991FAA1FBB1F3A95D1F7019766
:10373000F1F70895DF92EF92FF920F931F93CF93CB
:10374000DF93EC019B01E880F9800A811B81DC801A
:103750008FE7D82241F006C0C9016AE070E00E94FC
:10376000372B9B01DA94DD2039F0C9016AE070E063
:103770000E94372B892B81F3B90180E090E0A801EA
:1037800097010E94182B7B018C01DD20E1F0ED2DCB
:10379000F0E0EE0FFF1FEE0FFF1FE050FE4F208105
:1037A000318142815381CA01B901969587957795F8
:1037B00067956E0D7F1D801F911F0E944B2BC901C5
:1037C000DA017C018D018C8187FF08C02227332715
:1037D000A9012E193F09400B510B02C0A801970106
:1037E000B901CA01CDB7DEB7E7E00C94AF2B8091E9
:1037F000040680688093040608950F931F93082F92
:1038000081568A3110F0102F02C0102F1F7D909129
:103810000206992309F46DC1812F81548A3138F051
:103820001A3229F01A3019F01D3009F062C19035B2
:1038300009F417C19135A0F4973419F1983450F474
:10384000953409F496C0963408F0B7C09A3209F05E
:1038500044C132C19D34D1F09E3409F03EC117C13C
:103860009835C9F0993538F4933509F4CAC09435C0
:1038700009F033C107C1993591F19A3509F02DC18D
:1038800054C060912E06609306061EC160912E06FC
:103890006093070619C18091050680FF05C08EE27E
:1038A00096E068E373E604C08EE296E068EE73E0AB
:1038B0000E949A1B609308067093090680930A067B
:1038C00090930B068091610680FF07C16091080606
:1038D0007091090680910A0690910B0623C0809191
:1038E000050680FF05C08EE296E068E373E604C03B
:1038F0008EE296E068EE73E00E949A1B60930C06DD
:1039000070930D0680930E0690930F0680916106CA
:1039100080FFE3C060910C0670910D0680910E0649
:1039200090910F060E949027D8C08091050680FFD5
:1039300005C08EE296E068E373E604C08EE296E08E
:1039400068EE73E00E949A1B609310067093110654
:1039500080931206909313068091610680FFBDC08C
:1039600060911006709111068091120690911306D5
:10397000D9CF8091050680FF05C08EE296E068E30E
:1039800073E604C08EE296E068EE73E00E949A1B34
:10399000609314067093150680931606909317068D
:1039A0008091610680FF99C06091140670911506A0
:1039B00080911606909117068EC08091050680FFB3
:1039C00005C08EE296E068E373E604C08EE296E0FE
:1039D00061E070E00E949A1B6093180670931906CC
:1039E00080931A0690931B068091610680FF75C034
:1039F000609118067091190680911A0690911B0625
:103A00006AC080910706883621F08D3611F08C3817
:103A100029F48EE296E064E070E00CC082588330B6
:103A200028F48EE296E060E074E004C08EE296E056
:103A300061E070E00E949A1B60931D0670931E0661
:103A400080931F06909320068091610680FF45C0F9
:103A500060911D0670911E0680911F0690912006B0
:103A600061CF8EE296E061E070E00E949A1B9B01BC
:103A700070932206609321068091610680FF2DC01D
:103A8000B90127C060912E06609323061DC08EE207
:103A900096E061E070E00E949A1B282F6093240654
:103AA00070932506809326069093270680916106E1
:103AB00080FF13C0822F0FC08EE296E061E070E0BD
:103AC0000E949A1B60932C068091610680FF05C0BE
:103AD00070E080E090E00E9453271092020610925E
:103AE0002E0610922F061092300610923106109278
:103AF00032068091040684FD20C185FD1EC1812F00
:103B000081548A3110F01A3249F4109302068091E0
:103B1000610680FF03C0812F0E94A926812F805358
:103B20008A3008F05EC0809132068F7790E004976B
:103B30000CF00CC18091050680FD0EC080912E0610
:103B400090912F06A0913006B09131068F5A95477B
:103B5000A144B04078F0FAC080912E0690912F06D3
:103B6000A0913006B09131068D5F9048A240B040E0
:103B700008F0ECC080912E0690912F06A09130069F
:103B8000B09131069C01AD0173E0220F331F441F39
:103B9000551F7A95D1F7880F991FAA1FBB1F280FB1
:103BA000391F4A1F5B1F812F90E0C097AA2797FDFE
:103BB000A095BA2F280F391F4A1F5B1F20932E068E
:103BC00030932F0640933006509331069091320681
:103BD000892F8F7709F4BAC08F5F8F779078982BF1
:103BE0009FC0153409F463C0163420F5183209F467
:103BF00080C0193278F41D3009F4A8C01E3030F4AA
:103C0000812F8950823008F08EC0A0C0103209F098
:103C10008AC09CC01D3209F470C01E3220F41A32D2
:103C200009F081C05EC01E3209F473C01B3309F075
:103C30007AC05BC0103509F448C0113550F4173410
:103C4000C1F01734C0F11D34E9F01E3409F06BC027
:103C500044C0183501F1193530F4133581F11435AC
:103C600009F061C036C01935D1F01A3509F05BC0D2
:103C70001AC08091030681608D7F809303061092A5
:103C8000070664C08091030682608E7F80930306DE
:103C9000109206065BC080910306846013C0809179
:103CA000030688600FC08091030680610BC080917D
:103CB0000306806207C080910306806403C0809180
:103CC000030680688093030641C0809104068160EA
:103CD0003BC080910406826037C0809104068460F6
:103CE00033C08091040688602FC0809104068061F3
:103CF0002BC080910406806227C080E88093320642
:103D000010922E0610922F06109230061092310655
:103D10001DC090913206892F8F77C1F49078916001
:103D20009093320613C08FE30E94A926812F0E9430
:103D3000A9268FE30E94A92609C08091040685FF69
:103D400005C0193219F48F7D809304068091040612
:103D500083FD05C080912D06802780932D061A30A3
:103D600019F01D3009F0A6C08091610680FF03C0E4
:103D7000812F0E94A9268091030680FD12C082FD3A
:103D800008C083FD06C084FD04C085FD02C086FF17
:103D900008C08091030681608093030681E08093D0
:103DA000060620912D0680912C06281721F080917F
:103DB000040683FD21C081E694E00E94D8260E947B
:103DC0005D1F8AE00E94A9268091040682FF3FC001
:103DD0008091240690912506A0912606B091270691
:103DE0000196A11DB11D8093280690932906A093EA
:103DF0002A06B0932B062BC08DB79EB708970FB637
:103E0000F8949EBF0FBE8DBFEDB7FEB7319683E429
:103E100094E0ADB7BEB712969C938E9311978091A4
:103E2000280690912906A0912A06B0912B0682833C
:103E30009383A483B583268317820E94DD278DB7E1
:103E40009EB708960FB6F8949EBF0FBE8DBF109216
:103E50002D0610922C0680910406807C8093040627
:103E60001092030686FF18C01092100610921106D9
:103E7000109212061092130610920C0610920D0664
:103E800010920E0610920F06109208061092090664
:103E900010920A0610920B068091040686FD02C05D
:103EA00087FF08C01092140610921506109216068D
:103EB000109217061F910F910895EF92FF920F93A2
:103EC0001F93CF93DF938091040686FF55C08091A6
:103ED000280290912902A0912A02B0912B022091F0
:103EE00008063091090640910A0650910B06820F90
:103EF000931FA41FB51F8093080690930906A093F3
:103F00000A06B0930B0680912C0290912D02A0918D
:103F10002E02B0912F0220910C0630910D06409197
:103F20000E0650910F06820F931FA41FB51F80939A
:103F30000C0690930D06A0930E06B0930F06809189
:103F4000300290913102A0913202B091330220915F
:103F50001006309111064091120650911306820FFF
:103F6000931FA41FB51F8093100690931106A09372
:103F70001206B093130602C087FF04C080911C068E
:103F8000816003C080911C068E7F80931C06609127
:103F900010067091110680911206909113060E94EE
:103FA000642A20E030E040E050E00E94CA298823E3
:103FB00044F41092100610921106109212061092FC
:103FC000130660911006709111068091120690916F
:103FD00013060E94642A20E030E543EC57E40E9477
:103FE000142B181664F480EA96E8A1E0B0E0809300
:103FF000100690931106A0931206B09313068091B9
:10400000040681FF04C0809123068093620680919C
:10401000030680FF53C1209106062C3109F47FC0AE
:104020002D3190F4243009F44BC0253030F4222394
:1040300009F1213009F03AC140C0243109F45FC0D0
:10404000253109F033C15FC02B3509F486C02C350A
:1040500038F42E3109F45DC02A3509F027C179C042
:10406000213A09F41EC1223A09F423C32C3509F080
:104070001DC179C0E0901806F090190600911A064B
:1040800010911B0688EE93E0A0E0B0E08093180644
:1040900090931906A0931A06B0931B0688E096E049
:1040A00060E040E00E94B61AE0921806F09219060D
:1040B00000931A0610931B06FCC288E096E084C1A8
:1040C0000E94DF198091040680FD12C0F2C20E9496
:1040D000740561E070E080E090E00E94601B8091D8
:1040E0002106909122060197909322068093210643
:1040F0008091210690912206892B49F7DAC280919E
:104100000506816003C0809105068E7F80930506B9
:10411000D0C288E096E060E040E00E94B61A0E94BB
:10412000DF1980910306982F96959695917083FFDD
:1041300002C091E004C0892F911181E0982F8091F5
:10414000030684FDB0C0992309F0B3C20E94B523D1
:10415000B0C2809104068F7B03C080910406806406
:1041600080930406A6C20E94DF198091030682FD97
:1041700002C090E011C08091080690910906A091BC
:104180000A06B0910B068093280290932902A0930F
:104190002A02B0932B0291E08091030683FF11C0A5
:1041A00080910C0690910D06A0910E06B0910F061D
:1041B00080932C0290932D02A0932E02B0932F0295
:1041C00091E08091030684FF11C0809110069091C8
:1041D0001106A0911206B0911306809330029093BD
:1041E0003102A0933202B093330291E08091030632
:1041F00085FF11C08091140690911506A0911606B6
:10420000B09117068093340290933502A093360242
:10421000B093370243C0992309F040C010921406AE
:10422000109215061092160610921706109234027C
:104230001092350210923602109237021092100638
:10424000109211061092120610921306109230026C
:1042500010923102109232021092330210920C0628
:1042600010920D0610920E0610920F0610922C025C
:1042700010922D0210922E0210922F021092080618
:104280001092090610920A0610920B06109228024C
:104290001092290210922A0210922B020E94250BE2
:1042A00008C284FF06C20E94612303C200D00F929D
:1042B000EDB7FEB731968AEA95E0EDC181FFF9C10D
:1042C00020910706293609F491C02A3670F5273067
:1042D00009F49BC0283098F4233009F46EC02430D0
:1042E00038F4222309F44DC0223009F0CDC149C071
:1042F000253009F4DEC1263009F0C6C151C024358D
:1043000009F43FC0253538F4223509F44EC0233571
:1043100009F0BAC14EC0273609F4CBC1283608F0DF
:1043200058C0253609F0B0C148C0233709F443C14D
:10433000243790F42F3609F473C0203738F42A3626
:1043400009F463C02E3609F09FC1B3C1203701F1D3
:10435000223709F099C16BC0283809F4AAC129385D
:1043600030F4243779F1273709F08EC14BC1203F53
:1043700009F478C1213F09F47DC12C3809F084C1CA
:1043800098C10E94DF190E94002683EA95E079C156
:104390000E94EA280E94CB190E940026F894FFCFC1
:1043A000809162068093630684C1809104068F77B2
:1043B000D7CE809104068068D3CE0E9489288823B6
:1043C00009F077C180E090E060E040E00E94B61A1A
:1043D00070C18091030687FF6CC160911D067091CA
:1043E0001E06809121060E948B2863C180910406DD
:1043F00080FD06C081E090E0909322068093210624
:10440000809121060E948C2854C18091030687FF69
:1044100050C18091210660911D060E945E2349C112
:1044200087FF47C180911D068093610642C10E94AB
:104430007206CDB7DEB766970FB6F894DEBF0FBE33
:10444000CDBFEDB7FEB7319685E895E0ADB7BEB705
:1044500012969C938E9311978091520290915302E1
:10446000A0915402B091550282839383A483B583B3
:104470008091560290915702A0915802B091590232
:1044800086839783A087B18780915A0290915B02BF
:10449000A0915C02B0915D0282879387A487B58763
:1044A00080915E0290915F02A0916002B0916102E2
:1044B00086879787A08BB18B80916202909163026F
:1044C000A0916402B0916502828B938BA48BB58B13
:1044D0000E94DD2780916106CDB7DEB766960FB6E4
:1044E000F894DEBF0FBECDBF86FFE3C08091A90266
:1044F00090E02BE630E0F9018E9F90018F9F300D08
:104500009E9F300D112426553D4FD901D3964D91D4
:104510005D916D917C91D6976E970FB6F894DEBF42
:104520000FBECDBFEDB7FEB731968EE495E0ADB7C7
:10453000BEB712969C938E931197428353836483E4
:104540007583E90188819981AA81BB8186839783DC
:10455000A087B1878C819D81AE81BF81828793873F
:10456000A487B58788859985AA85BB85868797871F
:10457000A08BB18B8C859D85AE85BF85828B938BFF
:10458000A48BB58B88899989AA89BB89868B978BDF
:10459000A08FB18F428F538F648F758F0E94DD275C
:1045A000EDB7FEB77E960FB6F894FEBF0FBEEDBF17
:1045B0000E94001A7EC02DB73EB7285030400FB67B
:1045C000F8943EBF0FBE2DBFEDB7FEB731968FE911
:1045D00094E0ADB7BEB712969C938E93119781E08D
:1045E00090E09383828315821482178216820E9440
:1045F000DD27CDB7DEB728960FB6F894DEBF0FBE25
:10460000CDBF57C00E94F625759A6AE070E080E041
:1046100090E00E94601B0F920F9287E894E0EDB744
:10462000FEB7928381830E94DD270F900F906599DA
:104630000BC00F920F928EE894E0ADB7BEB7129602
:104640009C938E93119708C00F920F9289E994E082
:10465000CDB7DEB79A8389830E94DD270F900F9034
:10466000759827C0809161068E7F809361068EE7E2
:1046700094E007C08091610681608093610686E7BF
:1046800094E00E94D82615C000D00F92EDB7FEB777
:10469000319685E694E0ADB7BEB712969C938E93A3
:1046A0001197228313820E94DD270F900F900F90A5
:1046B0000F90CDB7DEB7E6E00C94B02B08958FEFE6
:1046C0000895A5E1B0E0E7E6F3E20C94962BDE0155
:1046D0001196E8E2F2E085E101900D928150E1F758
:1046E00080EC9DEBA0EFBFEF89879A87AB87BC87F3
:1046F00080E593E0A0E0B0E0898B9A8BAB8BBC8B1C
:104700008E010F5F1F4FC80164E041E00E94B61A9E
:1047100080E492E4AFE0B0E089879A87AB87BC87FA
:104720008AE090E0A0E0B0E0898B9A8BAB8BBC8BE9
:10473000C80164E040E00E94B61A0E94DF1910929E
:104740001006109211061092120610921306109283
:1047500030021092310210923202109233020E9403
:10476000250B6596E4E00C94B22B0E94612308951A
:10477000EF92FF920F931F93CF93DF931091A902B3
:104780000E949919882309F18091280290912902A9
:10479000A0912A02B0912B0280936706909368063D
:1047A000A0936906B0936A0680912C0290912D0225
:1047B000A0912E02B0912F0280936B0690936C060D
:1047C000A0936D06B0936E0690C08BE6189FE00133
:1047D0001124C655DD4F8D8981FF87C0E880F9809F
:1047E0000A811B8184FF1FC060917702709178025B
:1047F0008091790290917A0228EE33E040E050E017
:104800000E94182B672F782F892F9927E61AF70A0D
:10481000080B190BE0926706F09268060093690690
:1048200010936A061EC060917702709178028091A1
:10483000790290917A0228EE33E040E050E00E9445
:10484000182B672F782F892F99276E0D7F1D801FBA
:10485000911F609367067093680680936906909332
:104860006A068D89EC80FD800E811F8185FF1FC047
:1048700060917B0270917C0280917D0290917E021A
:1048800028EE33E040E050E00E94182B672F782F8D
:10489000892F9927E61AF70A080B190BE0926B0685
:1048A000F0926C0600936D0610936E061EC0609128
:1048B0007B0270917C0280917D0290917E0228EEB5
:1048C00033E040E050E00E94182B672F782F892FAB
:1048D00099276E0D7F1D801F911F60936B0670934B
:1048E0006C0680936D0690936E06CDB7DEB7E6E05A
:1048F0000C94B02B80913306882309F05FC081E0CF
:10490000809333060E94B823609167067091680611
:104910008091690690916A0624E630E040E050E01C
:104920000E946D2BC901DA019C01AD0157FF05C042
:1049300020E030E040E050E00CC0203084E0380758
:1049400080E0480780E0580724F02FEF33E040E094
:1049500050E084E696E06EE1A90120E00E942D057A
:1049600060916B0670916C0680916D0690916E0659
:1049700024E630E040E050E00E946D2BC901DA01EE
:104980009C01AD0157FF05C020E030E040E050E061
:104990000CC0203084E0380780E0480780E05807EA
:1049A00024F02FEF33E040E050E08FE796E06EE137
:1049B000A90120E00E942D05109233060895CF92A0
:1049C000DF92EF92FF920F931F9360E472E48FE007
:1049D00090E00E94400374E6C72E76E0D72E83E075
:1049E0008093640691E090936606109265060FE747
:1049F00016E082E080937F069093810610928006F5
:104A00006CE7E62E66E0F62E90937C0690937E0689
:104A100010927D06C60160E248EC50E020E00E9462
:104A20002D05C80160E248EC50E020E00E942D0511
:104A3000C70160E248EC50E020E00E942D05C6016D
:104A400062E244EF51E020E00E942D05C80162E2DD
:104A500040E951E020E00E942D05C70162E248ECE8
:104A600050E020E00E942D05C60160E34CE350E0D9
:104A700020E00E942D05C80160E342E350E020E001
:104A80000E942D05C70160E348E250E020E00E944B
:104A90002D05C6016AE140E050E020E00E942D05AE
:104AA000C8016AE140E050E020E00E942D05C70106
:104AB0006AE140E050E020E00E942D05C6016BE174
:104AC00040E050E020E00E942D05C8016BE140E08D
:104AD00050E020E00E942D05C7016BE140E050E06E
:104AE00020E00E942D05C6016CE140E450E020E08A
:104AF0000E942D05C8016CE140E250E020E00E94D8
:104B00002D05C7016CE140E150E020E00E942D0539
:104B1000C6016DE140E450E020E00E942D05C8018F
:104B20006DE140E250E020E00E942D05C7016DE1FB
:104B300040E150E020E00E942D051F910F91FF9071
:104B4000EF90DF90CF90089585E880936400E5E6CC
:104B5000F0E080818660808380818260808380E84D
:104B600080BF8898809A8998819A8E98869A8F9823
:104B7000879A4198399A43983B9A6D9875981498FA
:104B80000C9A16980E9A5F98579A8A98829A479824
:104B90003F9A12980A9A08950E9407260E94F71BCE
:104BA0000E94A4250E949E280E9451060E94120382
:104BB0000E948828789482E0809361060E94DF2416
:104BC0008BEB95E00E94D82608950E94CC250E9488
:104BD0008019882341F40E948726882321F00E94AF
:104BE0008E260E94FD1B0E947405F1CF8091350630
:104BF000882319F481E080933506109234060895D5
:104C00005F9A8A9A479A129A10923506089582E01E
:104C10008093C00080E190E09093C5008093C40031
:104C2000E1ECF0E088E1808386E08093C20080813F
:104C3000806A808308951F920F920FB60F920BB671
:104C40000F9211242F938F939F93EF93FF93809153
:104C500037062091360690E00197821B91098F73E9
:104C60009070892B79F0E0913606F0E08091C600D3
:104C7000EE57F94F8083809136068F5F8F73809354
:104C8000360602C08091C600FF91EF919F918F91EF
:104C90002F910F900BBE0F900FBE0F901F90189585
:104CA0001F920F920FB60F920BB60F9211242F93F3
:104CB0008F939F93EF93FF9380913806209139064D
:104CC00090E0821B91098F739070892B79F0E091AD
:104CD0003906F0E0EE53F94F80818093C600809151
:104CE00039068F5F8F738093390605C08091C100AC
:104CF0008F7D8093C100FF91EF919F918F912F91B4
:104D00000F900BBE0F900FBE0F901F9018958091C3
:104D1000360690913706891B8F7308958091360669
:104D20002091370690E0821B91098F739070892B38
:104D300011F4E0E00CC0E0913706F0E0EE57F94FD7
:104D4000E081809137068F5F8F73809337068E2FB7
:104D50000895382F0FB607FE0DC0809139062091B7
:104D6000380690E00197821B91098F739070892B10
:104D7000A1F30CC0809139062091380690E001978C
:104D8000821B91098F739070892B61F0E091380636
:104D9000F0E0EE53F94F3083809138068F5F8F73C8
:104DA000809338068091C10080628093C10008958D
:104DB0001F93CF93DF93EC0110E002C00E94A9265D
:104DC000FE01E10FF11D1F5F84918823B9F7DF9188
:104DD000CF911F910895CF92DF92EF92FF920F93A0
:104DE0001F937B018C01C42EE4E2F2E029E0808174
:104DF0009181A281B381E816F9060A071B0720F406
:104E000021503497222399F7D22E2C1508F4DC2C4C
:104E1000ED2DF0E0EE0FFF1FEE0FFF1FE050FE4FF5
:104E2000208131814281538180E005C0E21AF30A7A
:104E3000040B150B8F5FE216F30604071507B0F796
:104E4000805D0E94A926DC1419F48EE20E94A92636
:104E5000DD2011F0DA94DCCF1F910F91FF90EF90DD
:104E6000DF90CF900895DF92EF92FF920F931F9300
:104E70007B018C01D42E97FF0BC08DE20E94A926E6
:104E800010950095F094E094E11CF11C011D111D9A
:104E9000C801B7014D2D0E94EB261F910F91FF9085
:104EA000EF90DF900895DF92EF92FF920F931F93A0
:104EB0007B018C01E4E2F2E029E0D22E8081918135
:104EC000A281B381E816F9060A071B0720F4DA94D9
:104ED0003497DD2099F7ED2DF0E0EE0FFF1FEE0F78
:104EE000FF1FE050FE4F208131814281538180E0DD
:104EF00005C0E21AF30A040B150B8F5FE216F306E6
:104F000004071507B0F7805D0E94A926DD2011F087
:104F1000DA94E1CF1F910F91FF90EF90DF90089509
:104F2000EF92FF920F931F937B018C0197FF0BC0B1
:104F30008DE20E94A92610950095F094E094E11C62
:104F4000F11C011D111DC801B7010E9453271F91BB
:104F50000F91FF90EF9008958F708A3010F4805D6C
:104F600001C0895C0E94A92608951F93182F82957D
:104F70008F700E94AC27812F8F700E94AC271F91E9
:104F800008951F93182F892F0E94B527812F0E9403
:104F9000B5271F910895EF92FF920F931F937B0106
:104FA0008C01AA27BB270E94C127C7010E94C127E5
:104FB0001F910F91FF90EF900895A0E0B0E0E3EE15
:104FC000F7E20C94902B90E1E92EF12CEC0EFD1EF3
:104FD0008E859F85FC015F0100E091C0002309F4EC
:104FE00085C0813709F472C0823740F4843649F1B4
:104FF0008C3669F0833609F075C03BC0853759F0AF
:10500000883709F43FC0833709F06CC002C004E060
:1050100073C001E071C0043049F487010C5F1F4F79
:10502000F701608171818281938108C087010E5FE1
:105030001F4FF7016081718180E090E00E9453274B
:105040001FC0043049F487010C5F1F4FF7016081D6
:105050007181828193810AC087010E5F1F4FF70122
:1050600060817181882777FD8095982F0E94902715
:1050700007C087010E5F1F4FF70180810E94A9269C
:10508000780132C085EC95E00E94D826043059F4AE
:1050900087010C5F1F4FF7016081718182819381CD
:1050A0000E94CB27EDCF82E0C82ED12CCE0CDF1C86
:1050B000013029F4F70180810E94B52705C0F7016E
:1050C000808191810E94C12776010EC087010C5F0B
:1050D0001F4FF701608171818281938143E00E94BB
:1050E0003327CECF0E94A92600E006C0853211F4F6
:1050F00002E002C00E94A9260894A11CB11CF5017F
:105100008491882309F06ACF2096EAE00C94AC2BB6
:1051100008958FEF0895089508958091610684FFA2
:105120000CC00F920F9288EC95E0EDB7FEB792831A
:1051300081830E94DD270F900F90089510928000C8
:1051400081E08093810080E09DE790938B008093C5
:105150008A0084E080936F000895F894209188007D
:1051600030918900609302077093030780930407CE
:1051700090930507603040E0740741E0840740E009
:10518000940718F4260F371F1BC0603147E27407DD
:1051900041E0840740E0940798F42051374230936F
:1051A000890020938800605F784D8F4F9F4F6093F8
:1051B000020770930307809304079093050704C0C8
:1051C000309389002093880080916F0082608093E3
:1051D0006F00089510926F0008951F920F920FB6FE
:1051E0000F920BB60F921124EF92FF920F931F9321
:1051F0002F933F934F935F936F937F938F939F93DF
:10520000AF93BF93EF93FF93E0900207F0900307F3
:10521000009104071091050780E0E81680E0F80689
:1052200081E0080780E0180740F480916F008D7FCF
:1052300080936F000E941D1B40C0A8019701205061
:105240003040414050402093020730930307409381
:10525000040750930507203090E0390791E0490793
:1052600090E0590758F48091880090918900820F4E
:10527000931F90938900809388001FC0205137426C
:1052800041405040D0F48091880090918900805135
:105290009742909389008093880080E197E2AFEF76
:1052A000BFEFE80EF91E0A1F1B1FE0920207F092E3
:1052B00003070093040710930507FF91EF91BF9137
:1052C000AF919F918F917F916F915F914F913F919E
:1052D0002F911F910F91FF90EF900F900BBE0F90A9
:1052E0000FBE0F901F9018951F920F920FB60F923E
:1052F0000BB60F9211242F933F934F935F936F93AD
:105300007F938F939F93AF93BF93EF93FF9380917E
:105310008A0090918B008050934890938B008093EB
:105320008A0090913A06892F8E5F80933A068A30E0
:10533000E0F0985090933A0691E090933D0680916A
:105340003B068F5F80933B06893178F010923B06D5
:1053500090933E0680913C068F5F80933C0684309C
:1053600020F010923C0690933F060E949807FF9110
:10537000EF91BF91AF919F918F917F916F915F91CD
:105380004F913F912F910F900BBE0F900FBE0F903A
:105390001F901895D4D008F481E008950CD00AC16C
:1053A00002D140F0F9D030F021F45F3F19F0EBC0AA
:1053B000511134C1EEC00FD198F39923C9F355238D
:1053C000B1F3951B550BBB27AA27621773078407F8
:1053D00038F09F5F5F4F220F331F441FAA1FA9F3AE
:1053E00033D00E2E3AF0E0E830D091505040E695A0
:1053F000001CCAF729D0FE2F27D0660F771F881F01
:10540000BB1F261737074807AB07B0E809F0BB0BEF
:10541000802DBF01FF2793585F4F2AF09E3F510513
:1054200068F0B1C0FBC05F3FECF3983EDCF38695BB
:1054300077956795B795F7959F5FC9F7880F911D89
:105440009695879597F90895E1E0660F771F881F75
:10545000BB1F621773078407BA0720F0621B730B28
:10546000840BBA0BEE1F88F7E0950895BCD088F046
:105470009F5790F0B92F9927B751A0F0D1F0660F40
:10548000771F881F991F1AF0BA95C9F712C0B1305B
:1054900081F0C3D0B1E00895C0C0672F782F88276E
:1054A000B85F39F0B93FCCF3869577956795B3959A
:1054B000D9F73EF490958095709561957F4F8F4F09
:1054C0009F4F0895E89409C097FB3EF4909580950E
:1054D000709561957F4F8F4F9F4F9923A9F0F92FBA
:1054E00096E9BB279395F695879577956795B79538
:1054F000F111F8CFFAF4BB0F11F460FF1BC06F5F1E
:105500007F4F8F4F9F4F16C0882311F096E911C02F
:10551000772321F09EE8872F762F05C0662371F050
:1055200096E8862F70E060E02AF09A95660F771F64
:10553000881FDAF7880F9695879597F90895990F40
:105540000008550FAA0BE0E8FEEF16161706E8074D
:10555000F907C0F012161306E407F50798F0621B6E
:10556000730B840B950B39F40A2661F0232B242B43
:10557000252B21F408950A2609F4A140A6958FEF62
:10558000811D811D089597F99F6780E870E060E0B4
:1055900008959FEF80EC089500240A9416161706CC
:1055A00018060906089500240A9412161306140614
:1055B00005060895092E0394000C11F4882352F077
:1055C000BB0F40F4BF2B11F460FF04C06F5F7F4F2F
:1055D0008F4F9F4F089557FD9058440F551F59F016
:1055E0005F3F71F04795880F97FB991F61F09F3FD0
:1055F00079F087950895121613061406551FF2CFF9
:105600004695F1DF08C0161617061806991FF1CF48
:1056100086957105610508940895E894BB2766276F
:105620007727CB0197F908958ADF08F48FEF089563
:10563000629FD001739FF001829FE00DF11D649F76
:10564000E00DF11D929FF00D839FF00D749FF00D02
:10565000659FF00D9927729FB00DE11DF91F639FA3
:10566000B00DE11DF91FBD01CF0111240895AA1B42
:10567000BB1B51E107C0AA1FBB1FA617B70710F03D
:10568000A61BB70B881F991F5A95A9F7809590956F
:10569000BC01CD010895A1E21A2EAA1BBB1BFD017E
:1056A0000DC0AA1FBB1FEE1FFF1FA217B307E40701
:1056B000F50720F0A21BB30BE40BF50B661F771F59
:1056C000881F991F1A9469F7609570958095909539
:1056D0009B01AC01BD01CF01089597FB092E052662
:1056E0000ED057FD04D0D7DF0AD0001C38F45095F7
:1056F0004095309521953F4F4F4F5F4F0895F6F7F6
:1057000090958095709561957F4F8F4F9F4F08952D
:105710002F923F924F925F926F927F928F929F92C1
:10572000AF92BF92CF92DF92EF92FF920F931F93AF
:10573000CF93DF93CDB7DEB7CA1BDB0B0FB6F89460
:10574000DEBF0FBECDBF19942A88398848885F8490
:105750006E847D848C849B84AA84B984C884DF8011
:10576000EE80FD800C811B81AA81B981CE0FD11DF5
:105770000FB6F894DEBF0FBECDBFED010895EE0F5A
:0E578000FF1F0590F491E02D1994F894FFCFCF
:10578E00010000000A00000064000000E8030000B1
:10579E0010270000A086010040420F00809698005E
:0857AE0000E1F50500CA9A3B79
:00000001FF
